{
  "_format": "hh-sol-artifact-1",
  "contractName": "ERC1155",
  "sourceName": "contracts/ERC1155.sol",
  "abi": [
    {
      "inputs": [
        {
          "internalType": "string",
          "name": "_name",
          "type": "string"
        },
        {
          "internalType": "string",
          "name": "_symbol",
          "type": "string"
        }
      ],
      "stateMutability": "nonpayable",
      "type": "constructor"
    },
    {
      "anonymous": false,
      "inputs": [
        {
          "indexed": true,
          "internalType": "address",
          "name": "account",
          "type": "address"
        },
        {
          "indexed": true,
          "internalType": "address",
          "name": "operator",
          "type": "address"
        },
        {
          "indexed": false,
          "internalType": "bool",
          "name": "approved",
          "type": "bool"
        }
      ],
      "name": "ApprovalForAll",
      "type": "event"
    },
    {
      "anonymous": false,
      "inputs": [
        {
          "indexed": true,
          "internalType": "address",
          "name": "operator",
          "type": "address"
        },
        {
          "indexed": true,
          "internalType": "address",
          "name": "from",
          "type": "address"
        },
        {
          "indexed": true,
          "internalType": "address",
          "name": "to",
          "type": "address"
        },
        {
          "indexed": false,
          "internalType": "uint256[]",
          "name": "ids",
          "type": "uint256[]"
        },
        {
          "indexed": false,
          "internalType": "uint256[]",
          "name": "values",
          "type": "uint256[]"
        }
      ],
      "name": "TransferBatch",
      "type": "event"
    },
    {
      "anonymous": false,
      "inputs": [
        {
          "indexed": true,
          "internalType": "address",
          "name": "operator",
          "type": "address"
        },
        {
          "indexed": true,
          "internalType": "address",
          "name": "from",
          "type": "address"
        },
        {
          "indexed": true,
          "internalType": "address",
          "name": "to",
          "type": "address"
        },
        {
          "indexed": false,
          "internalType": "uint256",
          "name": "id",
          "type": "uint256"
        },
        {
          "indexed": false,
          "internalType": "uint256",
          "name": "value",
          "type": "uint256"
        }
      ],
      "name": "TransferSingle",
      "type": "event"
    },
    {
      "inputs": [
        {
          "internalType": "address",
          "name": "_owner",
          "type": "address"
        },
        {
          "internalType": "uint256",
          "name": "_tokenId",
          "type": "uint256"
        }
      ],
      "name": "balanceOf",
      "outputs": [
        {
          "internalType": "uint256",
          "name": "",
          "type": "uint256"
        }
      ],
      "stateMutability": "view",
      "type": "function"
    },
    {
      "inputs": [
        {
          "internalType": "address[]",
          "name": "_accounts",
          "type": "address[]"
        },
        {
          "internalType": "uint256[]",
          "name": "_tokenIds",
          "type": "uint256[]"
        }
      ],
      "name": "balanceOfBatch",
      "outputs": [
        {
          "internalType": "uint256[]",
          "name": "",
          "type": "uint256[]"
        }
      ],
      "stateMutability": "view",
      "type": "function"
    },
    {
      "inputs": [
        {
          "internalType": "address",
          "name": "_account",
          "type": "address"
        },
        {
          "internalType": "address",
          "name": "_operator",
          "type": "address"
        }
      ],
      "name": "isApprovedForAll",
      "outputs": [
        {
          "internalType": "bool",
          "name": "",
          "type": "bool"
        }
      ],
      "stateMutability": "view",
      "type": "function"
    },
    {
      "inputs": [
        {
          "internalType": "address",
          "name": "_to",
          "type": "address"
        },
        {
          "internalType": "uint256",
          "name": "_tokenId",
          "type": "uint256"
        },
        {
          "internalType": "string",
          "name": "_uri",
          "type": "string"
        },
        {
          "internalType": "uint256",
          "name": "_amount",
          "type": "uint256"
        }
      ],
      "name": "mintTo",
      "outputs": [],
      "stateMutability": "nonpayable",
      "type": "function"
    },
    {
      "inputs": [],
      "name": "name",
      "outputs": [
        {
          "internalType": "string",
          "name": "",
          "type": "string"
        }
      ],
      "stateMutability": "view",
      "type": "function"
    },
    {
      "inputs": [],
      "name": "nextTokenIdToMint",
      "outputs": [
        {
          "internalType": "uint256",
          "name": "",
          "type": "uint256"
        }
      ],
      "stateMutability": "view",
      "type": "function"
    },
    {
      "inputs": [],
      "name": "owner",
      "outputs": [
        {
          "internalType": "address",
          "name": "",
          "type": "address"
        }
      ],
      "stateMutability": "view",
      "type": "function"
    },
    {
      "inputs": [
        {
          "internalType": "address",
          "name": "_from",
          "type": "address"
        },
        {
          "internalType": "address",
          "name": "_to",
          "type": "address"
        },
        {
          "internalType": "uint256[]",
          "name": "_ids",
          "type": "uint256[]"
        },
        {
          "internalType": "uint256[]",
          "name": "_amounts",
          "type": "uint256[]"
        },
        {
          "internalType": "bytes",
          "name": "_data",
          "type": "bytes"
        }
      ],
      "name": "safeBatchTransferFrom",
      "outputs": [],
      "stateMutability": "nonpayable",
      "type": "function"
    },
    {
      "inputs": [
        {
          "internalType": "address",
          "name": "_from",
          "type": "address"
        },
        {
          "internalType": "address",
          "name": "_to",
          "type": "address"
        },
        {
          "internalType": "uint256",
          "name": "_id",
          "type": "uint256"
        },
        {
          "internalType": "uint256",
          "name": "_amount",
          "type": "uint256"
        },
        {
          "internalType": "bytes",
          "name": "_data",
          "type": "bytes"
        }
      ],
      "name": "safeTransferFrom",
      "outputs": [],
      "stateMutability": "nonpayable",
      "type": "function"
    },
    {
      "inputs": [
        {
          "internalType": "address",
          "name": "_operator",
          "type": "address"
        },
        {
          "internalType": "bool",
          "name": "_approved",
          "type": "bool"
        }
      ],
      "name": "setApprovalForAll",
      "outputs": [],
      "stateMutability": "nonpayable",
      "type": "function"
    },
    {
      "inputs": [],
      "name": "symbol",
      "outputs": [
        {
          "internalType": "string",
          "name": "",
          "type": "string"
        }
      ],
      "stateMutability": "view",
      "type": "function"
    },
    {
      "inputs": [
        {
          "internalType": "uint256",
          "name": "",
          "type": "uint256"
        }
      ],
      "name": "totalSupply",
      "outputs": [
        {
          "internalType": "uint256",
          "name": "",
          "type": "uint256"
        }
      ],
      "stateMutability": "view",
      "type": "function"
    },
    {
      "inputs": [
        {
          "internalType": "uint256",
          "name": "_tokenId",
          "type": "uint256"
        }
      ],
      "name": "uri",
      "outputs": [
        {
          "internalType": "string",
          "name": "",
          "type": "string"
        }
      ],
      "stateMutability": "view",
      "type": "function"
    }
  ],
  "bytecode": "0x60806040523480156200001157600080fd5b5060405162002e1a38038062002e1a83398181016040528101906200003791906200023f565b33600760006101000a81548173ffffffffffffffffffffffffffffffffffffffff021916908373ffffffffffffffffffffffffffffffffffffffff16021790555081600590816200008991906200050f565b5080600690816200009b91906200050f565b5060006004819055505050620005f6565b6000604051905090565b600080fd5b600080fd5b600080fd5b600080fd5b6000601f19601f8301169050919050565b7f4e487b7100000000000000000000000000000000000000000000000000000000600052604160045260246000fd5b6200011582620000ca565b810181811067ffffffffffffffff82111715620001375762000136620000db565b5b80604052505050565b60006200014c620000ac565b90506200015a82826200010a565b919050565b600067ffffffffffffffff8211156200017d576200017c620000db565b5b6200018882620000ca565b9050602081019050919050565b60005b83811015620001b557808201518184015260208101905062000198565b60008484015250505050565b6000620001d8620001d2846200015f565b62000140565b905082815260208101848484011115620001f757620001f6620000c5565b5b6200020484828562000195565b509392505050565b600082601f830112620002245762000223620000c0565b5b815162000236848260208601620001c1565b91505092915050565b60008060408385031215620002595762000258620000b6565b5b600083015167ffffffffffffffff8111156200027a5762000279620000bb565b5b62000288858286016200020c565b925050602083015167ffffffffffffffff811115620002ac57620002ab620000bb565b5b620002ba858286016200020c565b9150509250929050565b600081519050919050565b7f4e487b7100000000000000000000000000000000000000000000000000000000600052602260045260246000fd5b600060028204905060018216806200031757607f821691505b6020821081036200032d576200032c620002cf565b5b50919050565b60008190508160005260206000209050919050565b60006020601f8301049050919050565b600082821b905092915050565b600060088302620003977fffffffffffffffffffffffffffffffffffffffffffffffffffffffffffffffff8262000358565b620003a3868362000358565b95508019841693508086168417925050509392505050565b6000819050919050565b6000819050919050565b6000620003f0620003ea620003e484620003bb565b620003c5565b620003bb565b9050919050565b6000819050919050565b6200040c83620003cf565b620004246200041b82620003f7565b84845462000365565b825550505050565b600090565b6200043b6200042c565b6200044881848462000401565b505050565b5b8181101562000470576200046460008262000431565b6001810190506200044e565b5050565b601f821115620004bf57620004898162000333565b620004948462000348565b81016020851015620004a4578190505b620004bc620004b38562000348565b8301826200044d565b50505b505050565b600082821c905092915050565b6000620004e460001984600802620004c4565b1980831691505092915050565b6000620004ff8383620004d1565b9150826002028217905092915050565b6200051a82620002c4565b67ffffffffffffffff811115620005365762000535620000db565b5b620005428254620002fe565b6200054f82828562000474565b600060209050601f83116001811462000587576000841562000572578287015190505b6200057e8582620004f1565b865550620005ee565b601f198416620005978662000333565b60005b82811015620005c1578489015182556001820191506020850194506020810190506200059a565b86831015620005e15784890151620005dd601f891682620004d1565b8355505b6001600288020188555050505b505050505050565b61281480620006066000396000f3fe608060405234801561001057600080fd5b50600436106100ce5760003560e01c80638da5cb5b1161008c578063b03f452811610066578063b03f452814610213578063bd85b0391461022f578063e985e9c51461025f578063f242432a1461028f576100ce565b80638da5cb5b146101bb57806395d89b41146101d9578063a22cb465146101f7576100ce565b8062fdd58e146100d357806306fdde03146101035780630e89341c146101215780632eb2c2d6146101515780633b1475a71461016d5780634e1273f41461018b575b600080fd5b6100ed60048036038101906100e89190611402565b6102ab565b6040516100fa9190611451565b60405180910390f35b61010b610373565b60405161011891906114fc565b60405180910390f35b61013b6004803603810190610136919061151e565b610401565b60405161014891906114fc565b60405180910390f35b61016b60048036038101906101669190611748565b6104a6565b005b610175610608565b6040516101829190611451565b60405180910390f35b6101a560048036038101906101a091906118da565b61060e565b6040516101b29190611a10565b60405180910390f35b6101c3610729565b6040516101d09190611a41565b60405180910390f35b6101e161074f565b6040516101ee91906114fc565b60405180910390f35b610211600480360381019061020c9190611a94565b6107dd565b005b61022d60048036038101906102289190611b75565b610875565b005b6102496004803603810190610244919061151e565b610ad1565b6040516102569190611451565b60405180910390f35b61027960048036038101906102749190611bf8565b610ae9565b6040516102869190611c47565b60405180910390f35b6102a960048036038101906102a49190611c62565b610b7d565b005b60008073ffffffffffffffffffffffffffffffffffffffff168373ffffffffffffffffffffffffffffffffffffffff160361031b576040517f08c379a000000000000000000000000000000000000000000000000000000000815260040161031290611d45565b60405180910390fd5b60008083815260200190815260200160002060008473ffffffffffffffffffffffffffffffffffffffff1673ffffffffffffffffffffffffffffffffffffffff16815260200190815260200160002054905092915050565b6005805461038090611d94565b80601f01602080910402602001604051908101604052809291908181526020018280546103ac90611d94565b80156103f95780601f106103ce576101008083540402835291602001916103f9565b820191906000526020600020905b8154815290600101906020018083116103dc57829003601f168201915b505050505081565b606060026000838152602001908152602001600020805461042190611d94565b80601f016020809104026020016040519081016040528092919081815260200182805461044d90611d94565b801561049a5780601f1061046f5761010080835404028352916020019161049a565b820191906000526020600020905b81548152906001019060200180831161047d57829003601f168201915b50505050509050919050565b3373ffffffffffffffffffffffffffffffffffffffff168573ffffffffffffffffffffffffffffffffffffffff1614806104e657506104e58533610ae9565b5b610525576040517f08c379a000000000000000000000000000000000000000000000000000000000815260040161051c90611e11565b60405180910390fd5b8151835114610569576040517f08c379a000000000000000000000000000000000000000000000000000000000815260040161056090611e7d565b60405180910390fd5b61057585858585610d7b565b8373ffffffffffffffffffffffffffffffffffffffff168573ffffffffffffffffffffffffffffffffffffffff163373ffffffffffffffffffffffffffffffffffffffff167f4a39dc06d4c0dbc64b70af90fd698a233a518aa5d07e595d983b8c0526c8f7fb86866040516105eb929190611e9d565b60405180910390a4610601338686868686610fb4565b5050505050565b60045481565b60608151835114610654576040517f08c379a000000000000000000000000000000000000000000000000000000000815260040161064b90611f20565b60405180910390fd5b6000835167ffffffffffffffff81111561067157610670611550565b5b60405190808252806020026020018201604052801561069f5781602001602082028036833780820191505090505b50905060005b845181101561071e576106ec8582815181106106c4576106c3611f40565b5b60200260200101518583815181106106df576106de611f40565b5b60200260200101516102ab565b8282815181106106ff576106fe611f40565b5b602002602001018181525050808061071690611f9e565b9150506106a5565b508091505092915050565b600760009054906101000a900473ffffffffffffffffffffffffffffffffffffffff1681565b6006805461075c90611d94565b80601f016020809104026020016040519081016040528092919081815260200182805461078890611d94565b80156107d55780601f106107aa576101008083540402835291602001916107d5565b820191906000526020600020905b8154815290600101906020018083116107b857829003601f168201915b505050505081565b80600160003373ffffffffffffffffffffffffffffffffffffffff1673ffffffffffffffffffffffffffffffffffffffff16815260200190815260200160002060008473ffffffffffffffffffffffffffffffffffffffff1673ffffffffffffffffffffffffffffffffffffffff16815260200190815260200160002060006101000a81548160ff0219169083151502179055505050565b3373ffffffffffffffffffffffffffffffffffffffff16600760009054906101000a900473ffffffffffffffffffffffffffffffffffffffff1673ffffffffffffffffffffffffffffffffffffffff1614610905576040517f08c379a00000000000000000000000000000000000000000000000000000000081526004016108fc90611e11565b60405180910390fd5b60007fffffffffffffffffffffffffffffffffffffffffffffffffffffffffffffffff84036109735760045490506001600460008282546109469190611fe6565b925050819055508260026000838152602001908152602001600020908161096d91906121c6565b506109bb565b60045484106109b7576040517f08c379a00000000000000000000000000000000000000000000000000000000081526004016109ae906122e4565b60405180910390fd5b8390505b8160008083815260200190815260200160002060008773ffffffffffffffffffffffffffffffffffffffff1673ffffffffffffffffffffffffffffffffffffffff1681526020019081526020016000206000828254610a1a9190611fe6565b9250508190555081600360008381526020019081526020016000206000828254610a449190611fe6565b925050819055508473ffffffffffffffffffffffffffffffffffffffff16600073ffffffffffffffffffffffffffffffffffffffff163373ffffffffffffffffffffffffffffffffffffffff167fc3d58168c5ae7397731d063d5bbf3d657854427343f4c083240f7aacaa2d0f628786604051610ac2929190612304565b60405180910390a45050505050565b60036020528060005260406000206000915090505481565b6000600160008473ffffffffffffffffffffffffffffffffffffffff1673ffffffffffffffffffffffffffffffffffffffff16815260200190815260200160002060008373ffffffffffffffffffffffffffffffffffffffff1673ffffffffffffffffffffffffffffffffffffffff16815260200190815260200160002060009054906101000a900460ff16905092915050565b3373ffffffffffffffffffffffffffffffffffffffff168573ffffffffffffffffffffffffffffffffffffffff161480610bbd5750610bbc8533610ae9565b5b610bfc576040517f08c379a0000000000000000000000000000000000000000000000000000000008152600401610bf390611e11565b60405180910390fd5b6000600167ffffffffffffffff811115610c1957610c18611550565b5b604051908082528060200260200182016040528015610c475781602001602082028036833780820191505090505b5090506000600167ffffffffffffffff811115610c6757610c66611550565b5b604051908082528060200260200182016040528015610c955781602001602082028036833780820191505090505b5090508482600081518110610cad57610cac611f40565b5b6020026020010181815250508381600081518110610cce57610ccd611f40565b5b602002602001018181525050610ce687878484610d7b565b8573ffffffffffffffffffffffffffffffffffffffff168773ffffffffffffffffffffffffffffffffffffffff163373ffffffffffffffffffffffffffffffffffffffff167fc3d58168c5ae7397731d063d5bbf3d657854427343f4c083240f7aacaa2d0f628888604051610d5c929190612304565b60405180910390a4610d72338888888888611187565b50505050505050565b600073ffffffffffffffffffffffffffffffffffffffff168373ffffffffffffffffffffffffffffffffffffffff1603610dea576040517f08c379a0000000000000000000000000000000000000000000000000000000008152600401610de190612379565b60405180910390fd5b60005b8251811015610fad576000838281518110610e0b57610e0a611f40565b5b602002602001015190506000838381518110610e2a57610e29611f40565b5b60200260200101519050600080600084815260200190815260200160002060008973ffffffffffffffffffffffffffffffffffffffff1673ffffffffffffffffffffffffffffffffffffffff16815260200190815260200160002054905081811015610ecb576040517f08c379a0000000000000000000000000000000000000000000000000000000008152600401610ec29061240b565b60405180910390fd5b8160008085815260200190815260200160002060008a73ffffffffffffffffffffffffffffffffffffffff1673ffffffffffffffffffffffffffffffffffffffff1681526020019081526020016000206000828254610f2a919061242b565b925050819055508160008085815260200190815260200160002060008973ffffffffffffffffffffffffffffffffffffffff1673ffffffffffffffffffffffffffffffffffffffff1681526020019081526020016000206000828254610f909190611fe6565b925050819055505050508080610fa590611f9e565b915050610ded565b5050505050565b60008473ffffffffffffffffffffffffffffffffffffffff163b111561117f578373ffffffffffffffffffffffffffffffffffffffff1663bc197c8187878686866040518663ffffffff1660e01b81526004016110159594939291906124b4565b6020604051808303816000875af192505050801561105157506040513d601f19601f8201168201806040525081019061104e9190612574565b60015b6110f65761105d6125ae565b806308c379a0036110b957506110716125d0565b8061107c57506110bb565b806040517f08c379a00000000000000000000000000000000000000000000000000000000081526004016110b091906114fc565b60405180910390fd5b505b6040517f08c379a00000000000000000000000000000000000000000000000000000000081526004016110ed906126d2565b60405180910390fd5b63bc197c8160e01b7bffffffffffffffffffffffffffffffffffffffffffffffffffffffff1916817bffffffffffffffffffffffffffffffffffffffffffffffffffffffff19161461117d576040517f08c379a000000000000000000000000000000000000000000000000000000000815260040161117490612764565b60405180910390fd5b505b505050505050565b60008473ffffffffffffffffffffffffffffffffffffffff163b1115611352578373ffffffffffffffffffffffffffffffffffffffff1663f23a6e6187878686866040518663ffffffff1660e01b81526004016111e8959493929190612784565b6020604051808303816000875af192505050801561122457506040513d601f19601f820116820180604052508101906112219190612574565b60015b6112c9576112306125ae565b806308c379a00361128c57506112446125d0565b8061124f575061128e565b806040517f08c379a000000000000000000000000000000000000000000000000000000000815260040161128391906114fc565b60405180910390fd5b505b6040517f08c379a00000000000000000000000000000000000000000000000000000000081526004016112c0906126d2565b60405180910390fd5b63f23a6e6160e01b7bffffffffffffffffffffffffffffffffffffffffffffffffffffffff1916817bffffffffffffffffffffffffffffffffffffffffffffffffffffffff191614611350576040517f08c379a000000000000000000000000000000000000000000000000000000000815260040161134790612764565b60405180910390fd5b505b505050505050565b6000604051905090565b600080fd5b600080fd5b600073ffffffffffffffffffffffffffffffffffffffff82169050919050565b60006113998261136e565b9050919050565b6113a98161138e565b81146113b457600080fd5b50565b6000813590506113c6816113a0565b92915050565b6000819050919050565b6113df816113cc565b81146113ea57600080fd5b50565b6000813590506113fc816113d6565b92915050565b6000806040838503121561141957611418611364565b5b6000611427858286016113b7565b9250506020611438858286016113ed565b9150509250929050565b61144b816113cc565b82525050565b60006020820190506114666000830184611442565b92915050565b600081519050919050565b600082825260208201905092915050565b60005b838110156114a657808201518184015260208101905061148b565b60008484015250505050565b6000601f19601f8301169050919050565b60006114ce8261146c565b6114d88185611477565b93506114e8818560208601611488565b6114f1816114b2565b840191505092915050565b6000602082019050818103600083015261151681846114c3565b905092915050565b60006020828403121561153457611533611364565b5b6000611542848285016113ed565b91505092915050565b600080fd5b7f4e487b7100000000000000000000000000000000000000000000000000000000600052604160045260246000fd5b611588826114b2565b810181811067ffffffffffffffff821117156115a7576115a6611550565b5b80604052505050565b60006115ba61135a565b90506115c6828261157f565b919050565b600067ffffffffffffffff8211156115e6576115e5611550565b5b602082029050602081019050919050565b600080fd5b600061160f61160a846115cb565b6115b0565b90508083825260208201905060208402830185811115611632576116316115f7565b5b835b8181101561165b578061164788826113ed565b845260208401935050602081019050611634565b5050509392505050565b600082601f83011261167a5761167961154b565b5b813561168a8482602086016115fc565b91505092915050565b600080fd5b600067ffffffffffffffff8211156116b3576116b2611550565b5b6116bc826114b2565b9050602081019050919050565b82818337600083830152505050565b60006116eb6116e684611698565b6115b0565b90508281526020810184848401111561170757611706611693565b5b6117128482856116c9565b509392505050565b600082601f83011261172f5761172e61154b565b5b813561173f8482602086016116d8565b91505092915050565b600080600080600060a0868803121561176457611763611364565b5b6000611772888289016113b7565b9550506020611783888289016113b7565b945050604086013567ffffffffffffffff8111156117a4576117a3611369565b5b6117b088828901611665565b935050606086013567ffffffffffffffff8111156117d1576117d0611369565b5b6117dd88828901611665565b925050608086013567ffffffffffffffff8111156117fe576117fd611369565b5b61180a8882890161171a565b9150509295509295909350565b600067ffffffffffffffff82111561183257611831611550565b5b602082029050602081019050919050565b600061185661185184611817565b6115b0565b90508083825260208201905060208402830185811115611879576118786115f7565b5b835b818110156118a2578061188e88826113b7565b84526020840193505060208101905061187b565b5050509392505050565b600082601f8301126118c1576118c061154b565b5b81356118d1848260208601611843565b91505092915050565b600080604083850312156118f1576118f0611364565b5b600083013567ffffffffffffffff81111561190f5761190e611369565b5b61191b858286016118ac565b925050602083013567ffffffffffffffff81111561193c5761193b611369565b5b61194885828601611665565b9150509250929050565b600081519050919050565b600082825260208201905092915050565b6000819050602082019050919050565b611987816113cc565b82525050565b6000611999838361197e565b60208301905092915050565b6000602082019050919050565b60006119bd82611952565b6119c7818561195d565b93506119d28361196e565b8060005b83811015611a035781516119ea888261198d565b97506119f5836119a5565b9250506001810190506119d6565b5085935050505092915050565b60006020820190508181036000830152611a2a81846119b2565b905092915050565b611a3b8161138e565b82525050565b6000602082019050611a566000830184611a32565b92915050565b60008115159050919050565b611a7181611a5c565b8114611a7c57600080fd5b50565b600081359050611a8e81611a68565b92915050565b60008060408385031215611aab57611aaa611364565b5b6000611ab9858286016113b7565b9250506020611aca85828601611a7f565b9150509250929050565b600067ffffffffffffffff821115611aef57611aee611550565b5b611af8826114b2565b9050602081019050919050565b6000611b18611b1384611ad4565b6115b0565b905082815260208101848484011115611b3457611b33611693565b5b611b3f8482856116c9565b509392505050565b600082601f830112611b5c57611b5b61154b565b5b8135611b6c848260208601611b05565b91505092915050565b60008060008060808587031215611b8f57611b8e611364565b5b6000611b9d878288016113b7565b9450506020611bae878288016113ed565b935050604085013567ffffffffffffffff811115611bcf57611bce611369565b5b611bdb87828801611b47565b9250506060611bec878288016113ed565b91505092959194509250565b60008060408385031215611c0f57611c0e611364565b5b6000611c1d858286016113b7565b9250506020611c2e858286016113b7565b9150509250929050565b611c4181611a5c565b82525050565b6000602082019050611c5c6000830184611c38565b92915050565b600080600080600060a08688031215611c7e57611c7d611364565b5b6000611c8c888289016113b7565b9550506020611c9d888289016113b7565b9450506040611cae888289016113ed565b9350506060611cbf888289016113ed565b925050608086013567ffffffffffffffff811115611ce057611cdf611369565b5b611cec8882890161171a565b9150509295509295909350565b7f4164643000000000000000000000000000000000000000000000000000000000600082015250565b6000611d2f600483611477565b9150611d3a82611cf9565b602082019050919050565b60006020820190508181036000830152611d5e81611d22565b9050919050565b7f4e487b7100000000000000000000000000000000000000000000000000000000600052602260045260246000fd5b60006002820490506001821680611dac57607f821691505b602082108103611dbf57611dbe611d65565b5b50919050565b7f6e6f7420617574686f72697a6564000000000000000000000000000000000000600082015250565b6000611dfb600e83611477565b9150611e0682611dc5565b602082019050919050565b60006020820190508181036000830152611e2a81611dee565b9050919050565b7f6c656e677468206d69736d617463680000000000000000000000000000000000600082015250565b6000611e67600f83611477565b9150611e7282611e31565b602082019050919050565b60006020820190508181036000830152611e9681611e5a565b9050919050565b60006040820190508181036000830152611eb781856119b2565b90508181036020830152611ecb81846119b2565b90509392505050565b7f6163636f756e7473206964206c656e677468206d69736d617463680000000000600082015250565b6000611f0a601b83611477565b9150611f1582611ed4565b602082019050919050565b60006020820190508181036000830152611f3981611efd565b9050919050565b7f4e487b7100000000000000000000000000000000000000000000000000000000600052603260045260246000fd5b7f4e487b7100000000000000000000000000000000000000000000000000000000600052601160045260246000fd5b6000611fa9826113cc565b91507fffffffffffffffffffffffffffffffffffffffffffffffffffffffffffffffff8203611fdb57611fda611f6f565b5b600182019050919050565b6000611ff1826113cc565b9150611ffc836113cc565b925082820190508082111561201457612013611f6f565b5b92915050565b60008190508160005260206000209050919050565b60006020601f8301049050919050565b600082821b905092915050565b60006008830261207c7fffffffffffffffffffffffffffffffffffffffffffffffffffffffffffffffff8261203f565b612086868361203f565b95508019841693508086168417925050509392505050565b6000819050919050565b60006120c36120be6120b9846113cc565b61209e565b6113cc565b9050919050565b6000819050919050565b6120dd836120a8565b6120f16120e9826120ca565b84845461204c565b825550505050565b600090565b6121066120f9565b6121118184846120d4565b505050565b5b818110156121355761212a6000826120fe565b600181019050612117565b5050565b601f82111561217a5761214b8161201a565b6121548461202f565b81016020851015612163578190505b61217761216f8561202f565b830182612116565b50505b505050565b600082821c905092915050565b600061219d6000198460080261217f565b1980831691505092915050565b60006121b6838361218c565b9150826002028217905092915050565b6121cf8261146c565b67ffffffffffffffff8111156121e8576121e7611550565b5b6121f28254611d94565b6121fd828285612139565b600060209050601f831160018114612230576000841561221e578287015190505b61222885826121aa565b865550612290565b601f19841661223e8661201a565b60005b8281101561226657848901518255600182019150602085019450602081019050612241565b86831015612283578489015161227f601f89168261218c565b8355505b6001600288020188555050505b505050505050565b7f696e76616c696420696400000000000000000000000000000000000000000000600082015250565b60006122ce600a83611477565b91506122d982612298565b602082019050919050565b600060208201905081810360008301526122fd816122c1565b9050919050565b60006040820190506123196000830185611442565b6123266020830184611442565b9392505050565b7f7472616e7366657220746f206164647265737320300000000000000000000000600082015250565b6000612363601583611477565b915061236e8261232d565b602082019050919050565b6000602082019050818103600083015261239281612356565b9050919050565b7f696e73756666696369656e742062616c616e636520666f72207472616e73666560008201527f7200000000000000000000000000000000000000000000000000000000000000602082015250565b60006123f5602183611477565b915061240082612399565b604082019050919050565b60006020820190508181036000830152612424816123e8565b9050919050565b6000612436826113cc565b9150612441836113cc565b925082820390508181111561245957612458611f6f565b5b92915050565b600081519050919050565b600082825260208201905092915050565b60006124868261245f565b612490818561246a565b93506124a0818560208601611488565b6124a9816114b2565b840191505092915050565b600060a0820190506124c96000830188611a32565b6124d66020830187611a32565b81810360408301526124e881866119b2565b905081810360608301526124fc81856119b2565b90508181036080830152612510818461247b565b90509695505050505050565b60007fffffffff0000000000000000000000000000000000000000000000000000000082169050919050565b6125518161251c565b811461255c57600080fd5b50565b60008151905061256e81612548565b92915050565b60006020828403121561258a57612589611364565b5b60006125988482850161255f565b91505092915050565b60008160e01c9050919050565b600060033d11156125cd5760046000803e6125ca6000516125a1565b90505b90565b600060443d1061265d576125e261135a565b60043d036004823e80513d602482011167ffffffffffffffff8211171561260a57505061265d565b808201805167ffffffffffffffff811115612628575050505061265d565b80602083010160043d03850181111561264557505050505061265d565b6126548260200185018661157f565b82955050505050505b90565b7f455243313135353a207472616e7366657220746f206e6f6e2d4552433131353560008201527f526563656976657220696d706c656d656e746572000000000000000000000000602082015250565b60006126bc603483611477565b91506126c782612660565b604082019050919050565b600060208201905081810360008301526126eb816126af565b9050919050565b7f455243313135353a204552433131353552656365697665722072656a6563746560008201527f6420746f6b656e73000000000000000000000000000000000000000000000000602082015250565b600061274e602883611477565b9150612759826126f2565b604082019050919050565b6000602082019050818103600083015261277d81612741565b9050919050565b600060a0820190506127996000830188611a32565b6127a66020830187611a32565b6127b36040830186611442565b6127c06060830185611442565b81810360808301526127d2818461247b565b9050969550505050505056fea264697066735822122073efb1d1e240dee4dd293d71767f41123ff56c309c5a4f22961e342ff2ceb7df64736f6c63430008130033",
  "linkReferences": {},
  "deployedLinkReferences": {}
}